:020000040800F2
:10000000380500200101000813190008DD17000859
:100010001119000891020008451C000800000000AA
:100020000000000000000000000000001719000898
:1000300095030008000000001519000819190008B0
:100040001B0100081B0100081B0100081B01000820
:100050001B0100081B0100081B0100081B01000810
:100060001B0100081B0100081B0100081B01000800
:100070001B0100081B0100081B0100081B010008F0
:100080001B0100081B0100081B0100081B010008E0
:100090001B0100081B0100081B0100081B010008D0
:1000A0001B0100081B0100081B0100081B010008C0
:1000B0001B0100081B0100081B0100081B010008B0
:1000C0001B0100081B0100081B0100081B010008A0
:1000D0001B010008211C00082D1C0008391C000809
:1000E0001B0100081B0100081B010008DFF80CD0F1
:1000F00000F052F800480047151E0008380500209F
:100100000648804706480047FEE7FEE7FEE7FEE7B1
:10011000FEE7FEE7FEE7FEE7FEE7FEE795190008CB
:10012000ED00000840EA01039B0703D009E008C97D
:10013000121F08C0042AFAD203E011F8013B00F8AC
:10014000013B521EF9D27047D2B201E000F8012BF8
:10015000491EFBD270470022F6E710B513460A4647
:1001600004461946FFF7F0FF204610BD30B50B4698
:10017000014600202022012409E021FA02F59D42D7
:1001800005D303FA02F5491B04FA02F52844151EAB
:10019000A2F10102F1DC30BD064C074D06E0E0683B
:1001A00040F0010394E8070098471034AC42F6D3BE
:1001B000FFF7A0FF081F0008281F000870B50446BD
:1001C00000688168C943C90717D1816821F001011E
:1001D000816000F07DFC05460AE000BF00F078FC7D
:1001E000401B022804D920688068C043C00706D09D
:1001F00020688068C043C007F0D0002070BDA06AAE
:1002000040F01000A062E06A40F00100E0620120CE
:1002100070BD0000F8B500260446009600688168AD
:10022000C943C9072DD0816841F00101816016489A
:1002300016490068B0FBF1F000E0401E0090002875
:10024000FBD100F045FC054616E000BF00F040FC85
:10025000401B022810D920688068C043C0070BD01B
:10026000A06A40F01000A062E06A40F00100E06285
:1002700084F824600120F8BD20688068C043C0076E
:10028000E4D10020F8BD00000C00002040420F0027
:10029000FEE7000010B512A086B0D0E90010CDE94D
:1002A000001011A14FF6FF74D1E90001CDE9020160
:1002B0000FA0234600680490052269460D4801F00E
:1002C0003FFA2346052202A90A4801F039FA2346DB
:1002D000042204A9074801F033FA06B010BD00005B
:1002E000AA13011EAC000000AA180102C5000000FC
:1002F000AA0400AE9400002010B50CA386B00FCB6A
:100300008DE80F000DA04FF6FF740068049023469F
:100310000F2269460A4801F013FA2346042204A971
:10032000074801F00DFA06B010BD0000AA080B0244
:100330002F30303030322A4D5033DA00AA0200AC70
:100340009400002010B586B014220BA16846FFF778
:10035000E9FE0EA04FF6FF740068059023461322B5
:1003600069460B4801F0ECF92346042205A9084828
:1003700001F0E6F906B010BDAA080F022F44592A71
:100380002F30303030332A4D5033D500AA0200AC24
:1003900094000020704772B6FEE7000030B50D4CA7
:1003A0000023207898B10C480021C278121D04E087
:1003B000455C491C2B44DBB2C9B28A42F8D8017AA9
:1003C000994202D1808840BAA08000202070A08885
:1003D00030BD00001000002024010020F8B50025E9
:1003E0000446009590F8240001280BD0012084F8E1
:1003F00024002046FFF7E2FE2046FFF70BFF060031
:1004000002D050E00220F8BDA06A20F4885040F0ED
:100410000200A062022000F0F9FB25490968B1FB47
:10042000F0F0400000E0401E00900028FBD1206862
:10043000816841F00801816000F04AFB074608E04E
:1004400000F046FBC01B0A2803D92068806800071B
:1004500015D4206880680007F2D42068816841F0D4
:100460000401816000F034FB074612E000F030FB2D
:10047000C01B0A280DD920688068400709D5A06AEA
:1004800020F0020040F01000A06284F82450012007
:10049000F8BD206880684007E8D4A06A20F0020018
:1004A00040F00100A06284F824503046F8BD0000FE
:1004B0000C000020F8B50024009490F82420254674
:1004C000012A12D0012280F824204A681F23072A1B
:1004D0000DD20668776B521E02EB820293409F4357
:1004E0000B6893401F43776319E00220F8BD06684C
:1004F0000D2A0AD2376BD21F02EB820293409F4330
:100500000B6893401F43376309E0F76A0D3A02EB2B
:10051000820293409F430B6893401F43F7620A682F
:10052000072306680A2A0AD3F7680A3A02EB42024E
:1005300093409F438B6893401F43F76008E03769FF
:1005400002EB420293409F438B6893401F43376105
:100550000A68102A01D0112A20D1124B02689A424F
:1005600017D193681B0219D4936843F40003936076
:100570000968102912D10C490C4A0968B1FBF2F143
:1005800001EB8101490000E0491E00910029FBD1E7
:1005900004E0816A41F020018162012480F8245046
:1005A0002046F8BD002401400C00002040420F000E
:1005B0000068C06C704700002DE9F0414FF0000763
:1005C00004003D467ED0A06A002628B9E66284F881
:1005D0002460204600F07EF82046FFF7EFFDA16A78
:1005E000C90600D420B1A06A40F01000A06269E002
:1005F000A16A21F4885141F00201A1626268E169B7
:10060000237B0A4347EA43010A43A1684FF48077FA
:10061000B94209D0012907D05FF0000194F814C055
:10062000BCF1010F02D00AE03946F7E7F3B1A36A43
:1006300043F02003A362E36A43F00103E36223680B
:10064000D3F804C02CF4694C4CEA010CC3F804C084
:1006500021688B68DFF870C003EA0C0313438B60DA
:10066000A168B9420BD0012909D00CE0DFF85CC0C9
:10067000A3690CEB43330B4343F40061DFE7218AAA
:100680000D05A5F580152168CB6A23F470032B4373
:10069000CB62216889680E4B1940914208D1E6620D
:1006A000A16A21F0020141F00101A162BDE8F081DF
:1006B000A06A20F0020040F01000A062E06A40F062
:1006C0000100E0620120F1E7FDF7E1FF00E0FFFF3C
:1006D000FE0E1FFF00B585B000210091019102912F
:1006E000039100680E49884218D10E48816941F48F
:1006F00000718161816901F400710491816941F0A7
:10070000040181618069694600F0040004900120C1
:10071000009003200190044800F0EAF805B000BD05
:1007200000240140001002400008014070B504465A
:1007300090F8240001280DD0012084F824002046E0
:10074000FFF768FD02004FF0000005D084F8240098
:10075000104670BD022070BDA16A40F2012399438A
:1007600041F48071A1621F4D23681F49AB4218D12B
:100770000E6816F4702F14D0A66A46F48016A6628E
:100780000E68760505D5A66A26F4005646F480560E
:10079000A662A66AF6040AD5E66A26F00606E662AE
:1007A00006E0A66A26F48016A6625E68E9E7E062C3
:1007B00084F824006FF00200186020688368C3F397
:1007C0004243072B05D1A84208D1096811F4702FC4
:1007D00004D0816841F480118160B9E7816841F4F7
:1007E000A001F9E7002801400424014010B590F869
:1007F00021100022022905D00421816380F82020E5
:10080000012010BD01680B6823F00E030B60016826
:100810000B6823F001030B6090F84030C46B01219A
:1008200001FA03F3636080F8211080F8202010465D
:1008300010BD000010B590F821100024022903D04B
:100840000421816301243DE001680A6822F00E0260
:100850000A6001680A6822F001020A601A4A016807
:10086000914201D1012121E0174A1432914201D174
:1008700010211BE0144A2832914201D1891515E05C
:10088000114A3C32914201D189140FE00E4A503294
:10089000914202D14FF4803108E00B4A6432914218
:1008A00002D14FF4801101E04FF08071064A083AFE
:1008B0005160012180F82110002180F82010416B47
:1008C00001B18847204610BD0800024070B50446BB
:1008D00000F0FEF80546601C02D00448007804448D
:1008E00000F0F6F8401BA042FAD370BD00000020D3
:1008F0002DE9F84FDFF8B8910024A9F1040B234645
:100900000F2709F1040AABF1040EC9E00125A54047
:100910002A40AA427DD1674ED1F804C0ACEB06084C
:10092000B44532D014DCBCF1030F3AD009DCBCF181
:10093000000F2AD0BCF1010F1CD0BCF1020F31D145
:100940001DE0BCF1110F17D0BCF1120F2AD119E034
:10095000B8F5881F19D006DCB8F5803F15D0B8F57A
:10096000801F1FD111E0B8F5001F0ED0B8F5041F8D
:1009700018D10AE0CB6815E0CB681B1D12E0CB68EC
:1009800008330FE0CB680C330CE08B682BB1012BE4
:100990004FF0080303D0456104E0042302E0056141
:1009A00000E00023FF2A01D8064601E000F104061A
:1009B0004FEA840501D9A5F12005D6F8008007FA91
:1009C00005FC28EA0C0803FA05F548EA0508C6F80C
:1009D00000804D68ED0062D5374DAE6946F00106E6
:1009E000AE61AD6924F0030605F001050095334DB5
:1009F00006EB050CDCF80850A607360F07FA06F8D8
:100A000025EA0805DFF8B880404503D14FF000081B
:100A100017E044E0DFF8AC80404502D14FF0010818
:100A20000FE0DFF8A480404502D14FF0020808E053
:100A3000DFF89880404502D14FF0030801E04FF005
:100A4000040808FA06F848EA0508CCF808804D685A
:100A5000D9F80060ED024D4601D5164300E09643FB
:100A60002E604D68DAF80060AD02554601D5164398
:100A700000E096432E604D68DBF80060AD035D46F4
:100A800001D5164300E096432E604D68DEF8006005
:100A9000ED03754601D5164300E096432E60641CB5
:100AA0000D682A46E5407FF431AFBDE8F88F0000BD
:100AB0000804014000001110001002400000014035
:100AC00000080140000C01400010014000140140EA
:100AD00001488068704700000000002002488168DB
:100AE000027811448160704700000020074810B56B
:100AF000016841F010010160032000F075F80F203B
:100B000000F006F800F024F8002010BD002002409C
:100B100070B50D4D04464FF47A712878B1FBF0F0B2
:100B20000A490968B1FBF0F000F0A4FB48B9102CA9
:100B300007D200222146501E00F036F800206C60DB
:100B400070BD012070BD0000000000200C000020DE
:100B50000C4808B5816941F001018161816901F0AA
:100B600001010091C16941F08051C161C06900F08B
:100B7000805000900448416821F0E06141F000712C
:100B8000416008BD0010024000000140002809DB60
:100B900000F01F02012191404009800000F1E02097
:100BA000C0F8001170470000F0B40E4B1B680C46F3
:100BB000C3F30223C3F10705042D00D90425191D31
:100BC000072901D2002300E0DB1E012606FA05F109
:100BD000491E214099409E40761E16403143F0BC8C
:100BE00001F042B80CED00E0064900F00702086889
:100BF0004FF6FF03184040EA0220034A1043086002
:100C0000704700000CED00E00000FA0510B5014649
:100C10000020234C012922D0022939D010291DD1CE
:100C200061682268D20119D51E48C1F38342C90305
:100C3000805C0AD561681B4AC1F34041921E515C39
:100C4000194AB2FBF1F1484301E018494843616891
:100C5000490203D440000321B0FBF1F010BD226A29
:100C6000C2F30121012903D1920701D5C80310BDA8
:100C7000022905D1626A920702D549F6404010BDAB
:100C80000329FCD121688903F9D54FF2244010BD16
:100C900000F02AF96168C1F38131491C4900DBE7A2
:100CA00000100240E01E000800127A0000093D001A
:100CB0002DE9F84305460078354CC00754D0E0696B
:100CC0000026C00008D4E06940F08050E061E0698F
:100CD000012600F0805000902E480168C90512D40A
:100CE0000168804641F480710160FFF7F1FE07461C
:100CF00005E000BFFFF7ECFEC01B642823D8D8F83E
:100D00000000C005F6D5206A10F4407021D0A988F3
:100D100001F4407181421CD0206A1F49012220F455
:100D200040700A6000220A602062C00711D0FFF7FD
:100D3000CFFE074641F2883808E000BFFFF7C8FE43
:100D4000C11B414502D90320BDE8F883206A800712
:100D5000F4D5206A696820F44070084320621EB10F
:100D6000E06920F08050E0612878800705D5606850
:100D7000A96820F44040084360602878C00605D583
:100D80006068E96820F48000084360600020DBE7C9
:100D90000010024000700040400442422DE9F0473C
:100DA0000F46050061D0434E306800F00700B8429E
:100DB00009D2306820F0070038433060306800F016
:100DC0000700B84251D128683B4C810712D5400733
:100DD00003D5606840F4E06060602878000703D5C0
:100DE000606840F4605060606068A96820F0F000BE
:100DF000084360602878C00728D06868012810D0B0
:100E00002168022810D0890700292EDA616821F0B4
:100E1000030101436160FFF75BFE804641F28839C0
:100E20000DE021688903EFE78901EDE7FFF750FE48
:100E3000A0EB0801494502D90320BDE8F0876068AE
:100E4000696800F00C00B0EB810FEFD1306800F062
:100E50000700B8420BD9306820F0070038433060F3
:100E6000306800F00700B84201D00120E5E728789B
:100E7000400705D56068E96820F4E06008436060D9
:100E80002878000706D56068296920F4605040EA98
:100E9000C100606000F038F86168084AC1F30311CE
:100EA000515CC8400649086006480068FFF730FEFC
:100EB0000020C2E70020024000100240F01E00089F
:100EC0000C0000200400002004480549006849681F
:100ED000044AC1F30221515CC84070470C00002055
:100EE00000100240001F00080448054900684968D6
:100EF000044AC1F3C221515CC84070470C00002075
:100F000000100240001F00080E4A51680E4801F010
:100F10000C03042B11D0082B0FD10C48C1F38343D1
:100F2000C903C05C0AD55168084AC1F34041921E0A
:100F3000515C054A5043B0FBF1F070470449484307
:100F4000704700000010024000127A00CE1E000818
:100F500000093D002DE9F84F040070D02078C04D05
:100F6000C00749D06868C0F38100012807D06868CD
:100F7000C0F38100022809D16868C00306D528683B
:100F8000800339D560680028E7D035E06068B0F5A7
:100F9000803F0BD010B1B0F5A02F11D0286820F4FD
:100FA00080302860286820F4802002E0286840F41F
:100FB00080302860606890B1FFF78AFD06460AE03D
:100FC000286840F480202860F0E700BFFFF780FD2C
:100FD000801B642873D828688003F7D50CE0FFF7DE
:100FE00077FD064605E000BFFFF772FD801B642811
:100FF000F0D828688003F7D420789A4E80074FF005
:1010000001094FF0000839D5686810F00C0F07D0BF
:101010006868C0F38100022809D16868C00306D45B
:101020002868800714D52069012808D110E02069BC
:10103000B0B1C6F80090FFF74BFD074605E00AE1A6
:10104000FFF746FDC01B0228C4D828688007F7D5E3
:101050002868616920F0F80040EAC10028600DE0CE
:10106000C6F80080FFF734FD074604E0FFF730FDC7
:10107000C01B022823D828688007F7D420780007EF
:101080002CD57948A169D9B1C0F80090FFF720FDAF
:10109000074604E0FFF71CFDC01B02280FD8686A52
:1010A0008007F7D571484FF4FA510068B0FBF1F0B2
:1010B000009000BF0098411E0091FAD20EE080E03F
:1010C000C0F80080FFF704FD074604E0FFF700FDCD
:1010D000C01B022875D8686A8007F7D420784007BB
:1010E00060D5E8690027C00008D4E86940F0805066
:1010F000E861E869012700F0805000905C480168D1
:10110000C90513D40168834641F480710160FFF77B
:10111000DFFC824606E000BFFFF7DAFCA0EB0A0026
:1011200064284ED8DBF80000C005F5D5E06801283A
:101130000AD008B1052813D0286A20F001002862DF
:10114000286A20F0040002E0286A40F001002862CA
:10115000E06841F2883B98B1FFF7BAFC82460BE0A9
:10116000286A40F004002862EEE700BFFFF7B0FCF9
:10117000A0EB0A0159455AD8286A8007F6D50CE039
:10118000FFF7A6FC824605E0FFF7A2FCA0EB0A01F0
:1011900059454CD8286A8007F6D41FB1E86920F079
:1011A0008050E861E06988B36968C1F38101022970
:1011B00044D00228C6F8608004D0FFF789FC0446BA
:1011C00038E034E0FFF784FC074604E0FFF780FCDA
:1011D000C01B02282BD828688001F7D4206AB0F5FC
:1011E000803F05D16868A16820F40030084368603A
:1011F000D4E908010843696821F474110843686060
:10120000C6F86090FFF764FC044606E025E000BFE6
:10121000FFF75EFC001B022809D828688001F7D57B
:101220001BE000BFFFF754FC001B022802D903207B
:10123000BDE8F88F28688001F4D40EE00128F7D0CB
:101240006868226A00F48031914204D1616A00F436
:101250007010884201D00120EAE70020E8E7000092
:101260000010024000004242800442420C00002074
:101270000070004010B5401EB0F1807F01D3012006
:1012800010BD4FF0E02460610F21601700F0ECFC0E
:101290000020A06107202061002010BD704770472A
:1012A000F8B5016804460868CA684B6910F00F0F6A
:1012B0004FF0000559D003F0010602F49077374350
:1012C00065D0C10705D0D10503D5616C41F001019E
:1012D0006164410705D5D90703D0616C41F0020173
:1012E0006164810705D5D90703D0616C41F0040121
:1012F0006164010707D502F02001314303D0616C1E
:1013000041F008016164616C00293AD0800604D57F
:10131000900602D5204600F06DFB20684069616CA4
:10132000C0F38010090700D460B3204600F03BFBF7
:1013300020684069400621D52068143050E8001F1D
:1013400021F0400140E80012002AF5D1E06BA8B17D
:101350006D494163E06BFFF76DFA002811D0E06B37
:10136000416B01B0BDE8F040084783060FD59306F6
:101370000DD52046BDE8F84000F03CBB2046FFF705
:101380008EFFF8BD2046FFF78AFF6564F8BD266B27
:101390002023012E7CD1C6067AD5D60678D50868DA
:1013A0004868009048694FF00206400640D5E16B5E
:1013B000086840680004000CE8D0A28D8242E5D99C
:1013C000E085886920282DD020680C3050E8001F67
:1013D00021F4807140E80012002AF5D12068143011
:1013E00050E8001F21F0010140E80012002AF5D169
:1013F0002068143050E8001F21F0400140E800123E
:10140000002AF5D184F84230256320680C3050E87A
:10141000001F21F0100140E80012002AF5D1E06B16
:10142000FFF7E4F96663A08DE18D401A81B22AE0EE
:10143000A08DE18D401A81B2E08D0028A6D0002950
:10144000A4D022680C3252E8000F20F4907042E8D9
:101450000007002FF5D12068143050E8002F22F04B
:10146000010240E80027002FF5D184F842302563BF
:1014700020680C3050E8002F22F0100240E80023D2
:10148000002BF5D166632046FFF708FFF8BDFFE7A4
:1014900005062BD5150629D594F841002128F5D14C
:1014A000A068B0F5805F01D12069B0B1206A411C0D
:1014B0002162216800784860E08C401E0004000C26
:1014C000E084E3D12068C16821F08001C160206818
:1014D000C16841F04001C160D8E7206A0088C0F3CC
:1014E00008004860206A801C2062E5E74006CDD5F0
:1014F0005006CBD5CA68204622F04002CA6084F864
:10150000413000F06AF9C1E79719000870B504008E
:1015100004D094F84100002510B106E0012070BD10
:1015200084F84050204600F023F8242084F841003D
:101530002068C16821F40051C160204600F0BCFA67
:101540002068016921F4904101612068416921F01E
:101550002A0141612068C16841F40051C16065649D
:10156000202084F8410084F842006563002070BDAB
:10157000F0B585B0002400940194029403940368AC
:10158000424F022042490322424D4602BB4225D12E
:101590008B6943F480438B618B6903F4804304932C
:1015A0008B6943F004038B618969039201F00401A4
:1015B00004910102CDE9001069462846FFF798F929
:1015C000CDE90064694628460294FFF791F90022AC
:1015D00011462520FFF7E8FA252028E02E4FBB42D0
:1015E00029D1CB6943F40033CB61CB6903F40033D9
:1015F00004938B6943F004038B618969039201F0C2
:10160000040104910421CDE9001069462846FFF742
:101610006FF90820CDE90004694628460294FFF7D7
:1016200067F9002211462620FFF7BEFA2620FFF7B1
:10163000ADFA05B0F0BD194DAB42FAD1CB6943F418
:101640008023CB61CB6903F4802304938B6943F03F
:1016500008038B618969124D01F00801CDE903216E
:10166000CDE9006069462846FFF742F9E814CDE964
:101670000004694628460294FFF73AF90022114611
:101680002720FFF791FA2720D1E70000003801401A
:1016900000100240000801400044004000480040A3
:1016A000000C014090F84230202B01D002207047FE
:1016B00021B11AB10023036300F05ABA0120704728
:1016C0001C4930B4884232D11B491C484A788B7877
:1016D0008354521CD2B24A70047800235A2C01D091
:1016E0004B701DE0022A18D0032A19D9C478641D52
:1016F000944215D180781528F2D108780028EFD1CE
:101700000E480A38D0F80A200260D0F80E20426055
:10171000428A028101200870E2E740785A28DFD12E
:101720000549012230BC891C0248FFF7BBBF30BC11
:1017300070470000DC000020100000202E01002077
:101740002DE9F843044690F841001F4616460D4621
:10175000202802D00220BDE8F8837DB176B10020B8
:101760006064212084F84100FFF7B2F9A684804626
:10177000E684A068B0F5805F02D003E00120EAE7CC
:10178000206910B12E4600250EE000260CE08021D5
:10179000204600F008FAA0B9AEB116F8010B216896
:1017A0004860E08C401EE084E08C43464FF000022D
:1017B00000970028EBD14FF04001204600F0F3F9EC
:1017C00030B10320C7E735F8020BC0F30800E6E7A5
:1017D000202084F841000020BDE77047FEE70000AC
:1017E0003EB5002410480094019402940D49846091
:1017F000016004730475012505614FF460214460A4
:10180000C161FEF7D9FE08B1FEF7C5FDCDE900457F
:10181000694605480294FEF74DFE002801D0FEF708
:10182000BAFD3EBD002401401C0000200D4808B553
:10183000816941F020018161816901F020010091FD
:10184000816941F004018161816901F00401009125
:10185000816941F008018161806900F00800009011
:1018600008BD0000001002400C4810B50A49016094
:101870004FF4E1314160002181600C22C160C0E978
:1018800004128161C161FFF741FE002803D0BDE869
:101890001040FEF780BD10BD003801404C00002014
:1018A0000C4810B50A4901604FF4165141600021FF
:1018B00081600C22C160C0E904128161C161FFF73F
:1018C00025FE002803D0BDE81040FEF764BD10BD22
:1018D00000440040940000200C4810B50A49016003
:1018E0004FF416514160002181600C22C160C0E9B3
:1018F00004128161C161FFF709FE002803D0BDE831
:101900001040FEF748BD10BD00480040DC0000203C
:10191000FEE7FEE770477047FFF7E0B830B593B0D9
:1019200028216846FEF717FC14210AA8FEF713FCCD
:10193000002501200F9510951195010412958DE851
:10194000230004904FF4E010CDE90810022407941E
:101950006846FFF7FFFA08B172B6FEE70AA90F2042
:1019600081E831004FF48060CDE90D0502210AA81D
:10197000FFF714FA08B172B6FEE74FF40040119079
:101980000F940FA8FFF794F9002801D072B6FEE774
:1019900013B030BD704710B5406A0021C185C184C5
:1019A000FFF77DFC10BD01680C3151E8002F22F4D7
:1019B000907241E80023002BF5D10168143151E801
:1019C000002F22F0010241E80023002BF5D1016B2A
:1019D000012909D101680C3151E8002F22F01002D1
:1019E00041E80023002BF5D1202180F8421000218E
:1019F0000163704708B590F84210222901D00220F7
:101A000008BD82684FF480539A4201D1016921B127
:101A1000816A9A421BD04AB10AE00268816A526820
:101A2000C2F308020A80816A891C08E0026972B167
:101A30000268526802F07F020A70816A491C816262
:101A4000C18D491E0904090CC18503D01BE0026841
:101A50005268F1E70168CA6822F02002CA60016892
:101A6000CA6822F48072CA6001684A6922F00102E1
:101A70004A61202180F8421000214163026B012A53
:101A800003D0FFF71DFE002008BD016301680C3183
:101A900051E8002F22F0100241E80023002BF5D17D
:101AA00001680A68D20602D50A6849680091818DEA
:101AB000FFF7F4FBE7E7000070B504460068016932
:101AC000E26821F44051114301612169A068084393
:101AD000616908432168CA6841F20C639A43024372
:101AE000CA6020684169A26921F4407111434161D3
:101AF0001E492068884202D1FFF7F6F901E0FFF79E
:101B0000E3F900EBC00101EB001260686421800082
:101B1000B2FBF0F3B3FBF1F36FF018067343B2FBC3
:101B2000F0F5B2FBF0F605EB8305322303EB051568
:101B3000B5FBF1F5B6FBF1F605F0F00505EB061582
:101B4000B2FBF0F6B2FBF0F0B0FBF1F06FF0180270
:101B5000504306EB800003EB0010B0FBF1F021686E
:101B600000F00F002844886070BD0000003801407C
:101B700081628285C28500214164222180F8421061
:101B8000016921B10168CA6842F48072CA600168C3
:101B90004A6942F001024A610068C16841F02001CF
:101BA000C160002070472DE9F041984617460E4667
:101BB0000446069D27E0681C25D02DB1FEF788FF5E
:101BC000A0EB0800A8421ED920680C3050E8001F86
:101BD00021F4D07140E80012002AF5D120681430B9
:101BE00050E8001F21F0010140E80012002AF5D161
:101BF000202084F8410084F84200002084F840004E
:101C00000320BDE8F0812068006836EA000004D0B7
:101C10000020B842CFD00020F3E70120F9E7000010
:101C20000148FFF73DBB00004C0000200148FFF7D2
:101C300037BB0000940000200148FFF731BB0000D3
:101C4000DC000020FEE700000FB4054B10B503A92F
:101C5000044A029800F028F810BC5DF814FB00005C
:101C6000FD1D0008180000200907090E002804DBEC
:101C700000F1E02080F80014704700F00F0000F140
:101C8000E02080F8141D704702E008C8121F08C148
:101C9000002AFAD170477047002001E001C1121FED
:101CA000002AFBD1704700002DE9FF4F89B09B4609
:101CB0000446002506E025280BD05A460B9990478C
:101CC000641C6D1C20780028F5D10DB02846BDE8B5
:101CD000F08F0027B8460122474900E0074314F877
:101CE000013F203B02FA03F00842F7D120782E286A
:101CF00019D114F8010F47F004072A280ED06FF00D
:101D00002F022078A0F1300109290CD808EB8801B6
:101D100002EB410100EB0108641CF2E70A98641C25
:101D200050F8048B0A9020780028CED0642808D080
:101D3000692806D075281ED05A460B9990476D1C0D
:101D400058E00A994FF00A0901C90A91002802DAFD
:101D500040422D2102E0390504D52B218DF82010B9
:101D6000012103E0F90704D02021F7E78A4608AEF5
:101D70000DE00021FAE70A994FF00A0901C90A911A
:101D8000F7E74946FEF7F2F9303106F8011D002861
:101D9000F7D1ADEB060000F12009780701D44FF030
:101DA0000108C84502DDA8EB090000E000208046DC
:101DB000002706E008A85A46C05D0B9990476D1CA5
:101DC0007F1C5745F6DB04E030205A460B999047BC
:101DD0006D1CB8F10001A8F10108F5DC05E016F86A
:101DE000010B5A460B9990476D1CB9F10001A9F1FE
:101DF0000109F4DC641C65E70928010013B54FF6FE
:101E0000FF73012269460248FFF79AFC00981CBD47
:101E10004C000020FEF76AFEFFF780FDFFF706FD8D
:101E2000FFF7DEFCFFF720FDFFF73AFDFFF754FD5B
:101E30002148FEF7D3FA012220492148FFF732FC5E
:101E400000264FF4FA7435462046FEF73FFDFEF7B4
:101E500021FA4FF47A68A1461748FEF767FC164846
:101E6000FEF7A6FB80B24FF47A714843070BFEF7EA
:101E700095FA04461E2809DAFEF72AFE801B404523
:101E800004D3FEF739FAFEF723FE0646642F09DA7B
:101E9000FEF71EFE401B404504D3FEF753FAFEF743
:101EA00017FE05463A46214606A0FFF7CDFE4846F6
:101EB000FEF70CFDD0E700001C00002012000020FF
:101EC000DC00002025642C25640D0A0001020203B9
:101ED0000405060708090A0B0C0D0E0F101001026D
:101EE00002030405060708090A0B0C0D0E0F10105B
:101EF00000000000000000000102030406070809BA
:101F00000000000001020304281F00080000002058
:101F10001C000000881C0008441F00081C00002052
:101F20001C050000981C00080100000010000000C3
:101F3000000000000024F40000000000FF0000008A
:041F4000000000009D
:04000005080000ED02
:00000001FF
